1234567FRUFRU         LULU           10ANALYST          111223333........................10181977  554299S3932842800003183800310318
1436588WALK           SUE            08PROGRAMMER       134528903........................11232000  043499H5676434678321785329932499
4589300FRAKER         RICHARD        01PLANNER          254868483........................06052003  034299H6546356359095309305909350
1234567URFURF         PETE           09DISASTER RECOVERY343434444........................03231977  444000S5425252524924999245245900
3849838WASHINGTON     SUSANNAH       04SYSTEM ANALYST   483938883........................12141995  657999S5425454259245924869459242
9865878MOORE          JOHNNIE        07DRIVER           247958499........................03231996  011100H5425459694690249692469992
0686766ANTROPOLUS     JUANITA        03WINDOW WASHER    169584990........................04121930  043299H5693494059403594526321300
7494883MUNCHMORE      IGOR           02VALET            038648844........................07141985  666666S4324358909560426804502495
0557733ANT            JUAN           05DISH WASHER      223344556........................07121990  066666H5249586426808624543446363
5585858PANTHER        PAULA          06MANAGER          999997777........................09231986  001500H5435429858294808204609924
1234567FRUFRU         LUCAS          10ANALYST          111223333........................10181977  000001H5425542450085425699609566
1436588GRIFFIN        PETER          08PROGRAMMER       134528903........................11232000  999999S4250359328535259922099992
4589300BARNES         BINKY          01PLANNER          254868483........................06052003  101010S9999999999999999999999999
1234567URFURF         PETE           09DISASTER RECOVERY343434444........................03231977  010101H2342394384030324022430404
3849838WASHINGTON     SUSANNAH       04SYSTEM ANALYST   483938883........................12141995  453342S0000000000000000000000000
9865878OCAP           PACO           07DRIVER           247958499........................03231996  437849S1111111111111111111111111
